前面编译信息得知，有两个主要的程序，其中bitcoin为主程序，bitcoin-cli为客户端工具

```shell
/usr/local/bin/bitcoind
/usr/local/bin/bitcoin-cli
```

## 比特币网络

比特币有三个独立的网络  
Mainnet，就是现网中运行的BTC，货币昂贵主要用于交易，通过主网了解一些细节比较困难  
Testnet，测试网络，和主网类似，但是货币的获取相对容易，货币主要是测试使用，没有使用价值  
Regtest，本地测试网络，私有的区块链网络，所有的信息只在本地有效  

这里以Regtest网络为主，了解BTC的运行机制，运行的时候需要通过指定参数`-regtest` 选项启动  
或者将配置写入到bitcoin.conf，通过配置文件来指定，为了简单这里暂通过命令行指定  

## 比特币数据目录结构
启动比特币主程序`bitcoind -regtest -daemon`，加上daemon表示在后台运行，使用regtest私有网络  
在`/Users/admin/Library/Application Support/Bitcoin`数据目录中，看到的目录结构如下  

```shell
[admin@MacBookPro Bitcoin]$ tree
.
└── regtest
    ├── banlist.dat
    ├── bitcoind.pid
    ├── blocks
    │   ├── blk00000.dat
    │   └── index
    │       ├── 000003.log
    │       ├── CURRENT
    │       ├── LOCK
    │       └── MANIFEST-000002
    ├── chainstate
    │   ├── 000003.log
    │   ├── CURRENT
    │   ├── LOCK
    │   └── MANIFEST-000002
    ├── debug.log
    ├── peers.dat
    └── wallets
        ├── database
        │   └── log.0000000004
        ├── db.log
        └── wallet.dat

6 directories, 16 files
```

## 基本命令使用

#### 挖矿
```shell
[admin@MacBookPro regtest]$ bitcoin-cli -regtest generate 100
[
  "01cb2812be59f28b2f2af789a31158717362e5d152c4fada3d7f4a6481c29977",
  "579ba8cf04d6dbb343aae173c5eaa69e0ea17803edbf75a217f2cde58a124772",
  "6f4692c2413676b9748ccb28a1b0bda66f9591adbf56532b48e802acae46cd22",
  "6bcc33aef3a49c32af7c623ca6289c50a3f71e38b7c94628b4b3891a38841fb2",
  "26e29d5d9fcbf56d437fbbbd68dd2151e2216fed346b167c8844213c159c6d00",
  "30a059c9cdecb4e99f5379de8e3f296a27f16a8ab1a8e281809289d435942239",
  ……
  "32383f704038ce072b3aab1640f812538f637d8f41151cf945d97d8ef3b2acba",
  "67f337026f5837df07d9e2c8204442055ce4c3b47a4a42b41dfebe6ed51dff80",
  "353fa7528e67961507e1e095261784a0de38d8449cd9712a7e56b2a0c102cafa",
  "6032173959b25389d2103f9a03526b8f2c4552a11db9045bcdf9144e4bfec19c",
  "70d0a0c6a75028f7d5036ca4a29ff619cb929a4189e7485ce1a9b65af40f5935",
  "78d317d9a98b6e9ec1607f2a3e7ca4e90b7cfa9e077af0b9e0356364c4fb5fae"
]
```

#### 查看区块信息

```shell
[admin@MacBookPro regtest]$ bitcoin-cli -regtest getblockchaininfo
{
  "chain": "regtest",
  "blocks": 100,
  "headers": 100,
  "bestblockhash": "78d317d9a98b6e9ec1607f2a3e7ca4e90b7cfa9e077af0b9e0356364c4fb5fae",
  "difficulty": 4.656542373906925e-10,
  "mediantime": 1647414093,
  "verificationprogress": 1,
  "initialblockdownload": false,
  "chainwork": "00000000000000000000000000000000000000000000000000000000000000ca",
  "size_on_disk": 31477,
  "pruned": false,
  "softforks": [
    {
      "id": "bip34",
      "version": 2,
      "reject": {
        "status": false
      }
    },
    {
      "id": "bip66",
      "version": 3,
      "reject": {
        "status": false
      }
    },
    {
      "id": "bip65",
      "version": 4,
      "reject": {
        "status": false
      }
    }
  ],
  "bip9_softforks": {
    "csv": {
      "status": "defined",
      "startTime": 0,
      "timeout": 9223372036854775807,
      "since": 0
    },
    "segwit": {
      "status": "active",
      "startTime": -1,
      "timeout": 9223372036854775807,
      "since": 0
    }
  },
  "warnings": "This is a pre-release test build - use at your own risk - do not use for mining or merchant applications"
}
```

#### 查看挖矿奖励

regtest网络中，比特币奖励需要在100区块后才可以被花费

```shell
[admin@MacBookPro regtest]$ bitcoin-cli -regtest getbalance
0.00000000
[admin@MacBookPro regtest]$ bitcoin-cli -regtest generate 1
[
  "6c42c5e593fc2b29b9c24f77153380dc5df21191386c94c015abb7ef7a40fc63"
]
[admin@MacBookPro regtest]$ bitcoin-cli -regtest getbalance
50.00000000
[admin@MacBookPro regtest]$
```

#### 查看账户信息

listaccounts可以查看当前的账户余额信息，getaccountaddress可以查看账户的地址信息  
系统默认会有一个空的账号，如果获取账户信息的时候，该名称指定的账户不存在，那么系统会主动生成一个  
getaccountaddress接口在新版中已经废弃了，在新版中使用getnewaddress接口  

```shell 
[admin@MacBookPro Bitcoin]$ bitcoin-cli -regtest listaccounts
{
  "": 50.00000000
}
[admin@MacBookPro Bitcoin]$ bitcoin-cli -regtest getaccountaddress ""
mr4fWafS8zuaYuzA3W4T7z6HfjemC2y6WU
[admin@MacBookPro Bitcoin]$ bitcoin-cli -regtest getaccountaddress "myaccount"
mwaTYqrBss6dVK1FdbN5526sRxT1gSd4Ec
[admin@MacBookPro Bitcoin]$ bitcoin-cli -regtest listaccounts
{
  "": 50.00000000,
  "myaccount": 0.00000000
}
```

#### 转账

转账后交易并不能马上生效，需要新生成区块，将交易打包才能生效  
这里向 myaccount 账户的地址转账10个比特币，花费了一定的手续费 `0.00003840` 费用  
同时可以看到，生成新的区块确认了50个BTC已经入账到缺省的账户上了  

```shell
[admin@MacBookPro Bitcoin]$ bitcoin-cli -regtest sendtoaddress mwaTYqrBss6dVK1FdbN5526sRxT1gSd4Ec 10
fd55e1d0e7b0c1b49e0f22f0d9d09eb12b2269f0ca9b4c780a67e91562e140eb
[admin@MacBookPro Bitcoin]$ bitcoin-cli -regtest getrawtransaction fd55e1d0e7b0c1b49e0f22f0d9d09eb12b2269f0ca9b4c780a67e91562e140eb
0200000001f8f8038dc7e793b6931be974d3ba607b354bce57a342689825c5f70ea624e52b0000000048473044022032fade81e74d4cae818ae273d755905de2cc9aae382fc6deb9b0676f577a122e02202508cfdd672615a7168f3ebcee41a46df90592cf9fcf40f38a4907be08acfe5501feffffff0200196bee000000001976a9145277cf19b45af43edf43d48d186c7d86e008e93588ac00ca9a3b000000001976a914b02bae66c5161e15c4fb5f90528de2ab0bcfe87488ac65000000
[admin@MacBookPro Bitcoin]$ bitcoin-cli -regtest decoderawtransaction 0200000001f8f8038dc7e793b6931be974d3ba607b354bce57a342689825c5f70ea624e52b0000000048473044022032fade81e74d4cae818ae273d755905de2cc9aae382fc6deb9b0676f577a122e02202508cfdd672615a7168f3ebcee41a46df90592cf9fcf40f38a4907be08acfe5501feffffff0200196bee000000001976a9145277cf19b45af43edf43d48d186c7d86e008e93588ac00ca9a3b000000001976a914b02bae66c5161e15c4fb5f90528de2ab0bcfe87488ac65000000
{
  "txid": "fd55e1d0e7b0c1b49e0f22f0d9d09eb12b2269f0ca9b4c780a67e91562e140eb",
  "hash": "fd55e1d0e7b0c1b49e0f22f0d9d09eb12b2269f0ca9b4c780a67e91562e140eb",
  "version": 2,
  "size": 191,
  "vsize": 191,
  "locktime": 101,
  "vin": [
    {
      "txid": "2be524a60ef7c525986842a357ce4b357b60bad374e91b93b693e7c78d03f8f8",
      "vout": 0,
      "scriptSig": {
        "asm": "3044022032fade81e74d4cae818ae273d755905de2cc9aae382fc6deb9b0676f577a122e02202508cfdd672615a7168f3ebcee41a46df90592cf9fcf40f38a4907be08acfe55[ALL]",
        "hex": "473044022032fade81e74d4cae818ae273d755905de2cc9aae382fc6deb9b0676f577a122e02202508cfdd672615a7168f3ebcee41a46df90592cf9fcf40f38a4907be08acfe5501"
      },
      "sequence": 4294967294
    }
  ],
  "vout": [
    {
      "value": 39.99996160,
      "n": 0,
      "scriptPubKey": {
        "asm": "OP_DUP OP_HASH160 5277cf19b45af43edf43d48d186c7d86e008e935 OP_EQUALVERIFY OP_CHECKSIG",
        "hex": "76a9145277cf19b45af43edf43d48d186c7d86e008e93588ac",
        "reqSigs": 1,
        "type": "pubkeyhash",
        "addresses": [
          "mo31EFwWJLaCQAjcApqQy6BKeGGwwReipK"
        ]
      }
    },
    {
      "value": 10.00000000,
      "n": 1,
      "scriptPubKey": {
        "asm": "OP_DUP OP_HASH160 b02bae66c5161e15c4fb5f90528de2ab0bcfe874 OP_EQUALVERIFY OP_CHECKSIG",
        "hex": "76a914b02bae66c5161e15c4fb5f90528de2ab0bcfe87488ac",
        "reqSigs": 1,
        "type": "pubkeyhash",
        "addresses": [
          "mwaTYqrBss6dVK1FdbN5526sRxT1gSd4Ec"
        ]
      }
    }
  ]
}
[admin@MacBookPro Bitcoin]$ bitcoin-cli -regtest listaccounts
{
  "": 39.99996160,
  "myaccount": 0.00000000
}
[admin@MacBookPro Bitcoin]$ bitcoin-cli -regtest generate 1
[
  "22f45abd94aecec17b7bc413cf389ad332cfd6390a291d54b869e50c34b707a9"
]
[admin@MacBookPro Bitcoin]$ bitcoin-cli -regtest listaccounts
{
  "": 89.99996160,
  "myaccount": 10.00000000
}
[admin@MacBookPro Bitcoin]$ bitcoin-cli -regtest listreceivedbyaddress
[
  {
    "address": "mwaTYqrBss6dVK1FdbN5526sRxT1gSd4Ec",
    "account": "myaccount",
    "amount": 10.00000000,
    "confirmations": 1,
    "label": "myaccount",
    "txids": [
      "fd55e1d0e7b0c1b49e0f22f0d9d09eb12b2269f0ca9b4c780a67e91562e140eb"
    ]
  }
]
```


#### 生成新地址转账

可以看到，使用新接口getnewaddress生成的新地址，由于没有指定地址所属账户，那么地址是归属于缺省账户名下的  
现在向新地址转账5个比特币，转账后生成新区块，打包交易记录，通过listreceivedbyaddress查看，转账已经生效  
手续费花了`0.00003520`

```shell
[admin@MacBookPro regtest]$ bitcoin-cli -regtest getnewaddress
mqTKn2dDQNbskHUjP3r1kcvHvgdpSV4Evh
[admin@MacBookPro regtest]$ bitcoin-cli -regtest getnewaddress
msNzKT9AUuYNqK9P8QTJzPdxj3TF2xJ84U
[admin@MacBookPro regtest]$ bitcoin-cli -regtest getnewaddress
mgHVkM3ayg49DdL3K2ZXVKkcKNGncy3EkX
[admin@MacBookPro regtest]$ bitcoin-cli -regtest listaccounts
{
  "": 89.99996160,
  "myaccount": 10.00000000
}
[admin@MacBookPro regtest]$ bitcoin-cli -regtest sendtoaddress mqTKn2dDQNbskHUjP3r1kcvHvgdpSV4Evh 5
5641641dc51074fe2420b300cc4ff0833a25570d34f38b1a7625196390e666e6
[admin@MacBookPro regtest]$ bitcoin-cli -regtest listaccounts
{
  "": 84.99991640,
  "myaccount": 10.00000000
}
[admin@MacBookPro regtest]$ bitcoin-cli -regtest generate 1
[
  "29c065abd945e3a8748b55990bc79adc8dfbe1d5e2452ae6aa6c21d409805410"
]
[admin@MacBookPro regtest]$ bitcoin-cli -regtest listaccounts
{
  "": 139.99991640,
  "myaccount": 10.00000000
}
[admin@MacBookPro regtest]$ bitcoin-cli -regtest listreceivedbyaddress
[
  {
    "address": "mqTKn2dDQNbskHUjP3r1kcvHvgdpSV4Evh",
    "account": "",
    "amount": 5.00000000,
    "confirmations": 1,
    "label": "",
    "txids": [
      "5641641dc51074fe2420b300cc4ff0833a25570d34f38b1a7625196390e666e6"
    ]
  },
  {
    "address": "mwaTYqrBss6dVK1FdbN5526sRxT1gSd4Ec",
    "account": "myaccount",
    "amount": 10.00000000,
    "confirmations": 2,
    "label": "myaccount",
    "txids": [
      "fd55e1d0e7b0c1b49e0f22f0d9d09eb12b2269f0ca9b4c780a67e91562e140eb"
    ]
  }
]
```

#### 查看账户地址

前面通过getaccountaddress创建了一个myaccount的账户，以及多次调用getnewaddress生成缺省账户的地址  
现在通过getaddressesbyaccount查看这两个账号地址信息

```shell 
[admin@MacBookPro ~]$ bitcoin-cli -regtest getaddressesbyaccount ""
[
  "mgHVkM3ayg49DdL3K2ZXVKkcKNGncy3EkX",
  "mqTKn2dDQNbskHUjP3r1kcvHvgdpSV4Evh",
  "mr4fWafS8zuaYuzA3W4T7z6HfjemC2y6WU",
  "msNzKT9AUuYNqK9P8QTJzPdxj3TF2xJ84U"
]
[admin@MacBookPro ~]$ bitcoin-cli -regtest getaddressesbyaccount "myaccount"
[
  "mwaTYqrBss6dVK1FdbN5526sRxT1gSd4Ec"
]
```